:020000040000FA
:04000000D8EF00F045
:04000800BEEF01F056
:08001800F8EF00F021C0EAFF3F
:100020001FC0E9FF04000DD8FDE265D8080E056E7B
:1000300063D807D80432052EFBD75ED80450D5EF1D
:1000400000F0120EE9261D50EF121FC0E9FFEF1459
:1000500001B41D18FF0F1200076A066E018E270EED
:10006000056E100E0CD8030E056EE80E08D8056A52
:10007000640E05D8056A0A0E02D806500BD0046E2D
:100080000750036E0650026EBDEC00F0E866019E5C
:1000900001BE1200300F086E21C0EAFF21C0E2FF4E
:1000A0001F50E96E120FE16E090E096ED8900CD840
:1000B0000832092EFCD7D88007D8030E036EE80E4D
:1000C000A7EC00F0D5EF00F001A60BD0EF501D100B
:1000D00001A41D18EF6EE7501D10D8A01D18E76E83
:1000E0000BD0EF501D10D8A01D1801B41D18EF6ED5
:1000F0001D1CE71601D0018C0134060B2A0FF66E89
:10010000F76A010EF722F86A0900F550036E08003D
:10011000F55001ACA7EF00F0019CD8900332E83015
:10012000D8900332E830A7EF00F001900330005779
:100130000CF4056A046EE86A0406055AD8A0D5EFE7
:1001400000F0030E036EE40E02D8F5D7036AF50F34
:10015000026EFE0E04E300D004000226FDE2000061
:1001600002260306F9E202A002D000D0000012002D
:100170000210D8A4FF0ED5EF00F0076A066A100E31
:10018000086E0334063607360450065E0550075ADB
:1001900005E20450062605500722D89002360336A1
:1001A000082EEFD70250D5EF00F000010400120036
:1001B000959E958C92809282928492869594959643
:1001C00095929590E968070EEA6EED6AE950EA109B
:1001D000FCE1EF6A0F0EC16E070EB46EF19E6D96D4
:1001E0006F86816A826A760ED36E1C6AF9EF00F020
:1001F00010002B98BCEF01F004002BB84BEF01F07E
:1002000002C072F003C073F004C076F005C077F04E
:1002100006C07AF007C07BF008C07EF009C07FF00E
:100220000AC082F00BC083F00CC084F00DC085F0D2
:100230000EC086F00FC087F010C088F011C089F0A2
:1002400012C08AF013C08BF000C08CF001C08DF09A
:100250001DC08EF01EC08FF01FC090F020C091F026
:10026000F8CFB0F0F7CFB3F0F6CFB2F021C092F0F4
:1002700022C093F014C094F015C095F016C098F009
:1002800017C099F018C09CF019C09DF01AC0A0F0DA
:100290001BC0A1F02B881CB455EF01F029C0FBFF57
:1002A00028C0FAFF2750E06AF96E26C0FBFF25C080
:1002B000FAFF2450E06AF96E04002BA8ABEF01F0BE
:1002C00072C002F073C003F076C004F077C005F08E
:1002D0007AC006F07BC007F07EC008F07FC009F04E
:1002E00082C00AF083C00BF084C00CF085C00DF012
:1002F00086C00EF087C00FF088C010F089C011F0E2
:100300008AC012F08BC013F08CC000F08DC001F0D9
:100310008EC01DF08FC01EF090C01FF091C020F065
:10032000B0C0F8FFB3C0F7FFB2C0F6FF92C021F033
:1003300093C022F094C014F095C015F098C016F048
:1003400099C017F09CC018F09DC019F0A0C01AF019
:10035000A1C01BF02B981CB4B5EF01F029C0FBFF26
:1003600028C0FAFF2750E06AF96E26C0FBFF25C0BF
:10037000FAFF2450E06AF96E06EF02F0FBCF6FF04F
:10038000FACF6DF0E9CF60F0EACF61F0E1CF64F031
:10039000E2CF65F0D9CF68F0DACF69F01C841C9009
:1003A000E06A9DA0E9EF01F09EA0E9EF01F01C805A
:1003B0000400C00E246E030E256E000E266E1CD7A0
:1003C000D00E246E030E256E000E266E1EEF05F075
:1003D0009E90E06A1CB0CFEF01F0E80E246E030E91
:1003E000256E000E266E68D71C9460C0E9FF61C0C0
:1003F000EAFF64C0E1FF65C0E2FF68C0D9FF69C0E1
:10040000DAFF6DC0FAFF6FC0FBFF1100F28EF28CB5
:10041000310ECD6E9F809D808394839683928390CE
:10042000010E056EF40E86DE830E1F6E0F0E216E1A
:10043000800E1D6E060E016E2E0E2DDE2E0E2BDE94
:100440002E0E29DE2E0E27DE2E0E25DE2E0E23DEAC
:100450002E0E21DE2E0E1FDE2E0E1DDE2E0E1BDEBC
:100460002E0E19DE2E0E17DE2E0E15DE2E0E13DECC
:100470002E0E11DE2E0E0FDE2E0E0DDE2E0E0BDEDC
:100480002E0E09DE2E0E07DE2E0E05DE2E0E03DEEC
:100490002E0E01DE2E0E4BEC00F02E0E4BEC00F07B
:1004A0002E0E4BEC00F02E0E4BEC00F02E0E4BEC13
:1004B00000F02E0E4BEC00F02E0E4BEC00F02E0E4A
:1004C0004BEC00F02E0E4BEC00F02E0E4BEC00F03F
:1004D0002E0E4BEC00F02E0E4BEC00F02E0E4BECE3
:1004E00000F02E0E4BEC00F02E0E4BEC00F02E0E1A
:1004F0004BEC00F02E0E4BEC00F02E0E4BEC00F00F
:100500002E0E4BEC00F02E0E4BEC00F02E0E4BECB2
:1005100000F02E0E4BEC00F02E0E4BEC00F02E0EE9
:100520004BEC00F02E0E4BEC00F02E0E4BEC00F0DE
:100530002E0E4BEC00F02E0E4BEC00F02E0E4BEC82
:1005400000F02E0E4BEC00F02E0E4BEC00F02E0EB9
:100550004BEC00F02E0E4BEC00F02E0E4BEC00F0AE
:100560002E0E4BEC00F02E0E4BEC00F02E0E4BEC52
:1005700000F02E0E4BEC00F02E0E4BEC00F02E0E89
:100580004BEC00F02E0E4BEC00F02E0E4BEC00F07E
:100590002E0E4BEC00F02E0E4BEC00F02E0E4BEC22
:1005A00000F02E0E4BEC00F02E0E4BEC00F02E0E59
:1005B0004BEC00F02E0E4BEC00F02E0E4BEC00F04E
:1005C0000D0E4BEC00F00A0E4BEC00F0830E1F6E8C
:1005D0000F0E216E800E1D6E060E016E490E4BEC45
:1005E00000F06E0E4BEC00F0690E4BEC00F0740E58
:1005F0004BEC00F0200E4BEC00F0730E4BEC00F0D7
:10060000740E4BEC00F0610E4BEC00F0720E4BECF4
:1006100000F0740E4BEC00F00D0E4BEC00F00A0EE7
:100620004BEC00F0830E1F6E0F0E216E800E1D6EC0
:10063000060E016E500E4BEC00F0690E4BEC00F014
:10064000630E4BEC00F06B0E4BEC00F0420E4BECEB
:1006500000F0790E4BEC00F04C0E4BEC00F0690E04
:100660004BEC00F0670E4BEC00F0680E4BEC00F02A
:10067000740E4BEC00F0200E4BEC00F0460E4BECF1
:1006800000F0570E4BEC00F03A0E4BEC00F0010E70
:100690002CEC00F02E0E4BEC00F0050E2CEC00F0D4
:1006A0000D0E4BEC00F00A0E4BEC00F0830E1F6EAB
:1006B0000F0E216E800E1D6E060E016E540E4BEC59
:1006C00000F0650E4BEC00F0630E4BEC00F06F0E8B
:1006D0004BEC00F06D0E4BEC00F0610E4BEC00F0BB
:1006E000740E4BEC00F0690E4BEC00F0630E4BEC1B
:1006F00000F02E0E4BEC00F06E0E4BEC00F0650E91
:100700004BEC00F0740E4BEC00F0200E4BEC00F0C4
:100710002D0E4BEC00F0200E4BEC00F04E0E4BEC8F
:1007200000F06F0E4BEC00F0760E4BEC00F0690E13
:100730004BEC00F0200E4BEC00F0530E4BEC00F0B5
:10074000610E4BEC00F0640E4BEC00F00D0E4BEC28
:1007500000F00A0E4BEC00F0830E1F6E0F0E216EA0
:10076000800E1D6E060E016E590E4BEC00F0650EEC
:100770004BEC00F0610E4BEC00F0720E4BEC00F015
:100780003A0E4BEC00F0200E4BEC00F0320E4BEC2E
:1007900000F0300E4BEC00F0320E4BEC00F0310E5E
:1007A0004BEC00F00D0E4BEC00F00A0E4BEC00F0A1
:1007B000830E1F6E0F0E216E800E1D6E060E016ED3
:1007C000460E4BEC00F0570E4BEC00F0200E4BECBD
:1007D00000F0720E4BEC00F0650E4BEC00F0610E79
:1007E0004BEC00F06C0E4BEC00F0650E4BEC00F0A7
:1007F000730E4BEC00F0650E4BEC00F03A0E4BEC38
:1008000000F0200E4BEC00F0310E4BEC00F0380EF7
:100810004BEC00F02E0E4BEC00F0300E4BEC00F0E9
:10082000310E4BEC00F02E0E4BEC00F0320E4BEC88
:1008300000F0300E4BEC00F0320E4BEC00F0310EBD
:100840004BEC00F00D0E4BEC00F00A0E4BEC00F000
:10085000830E1F6E0F0E216E800E1D6E060E016E32
:100860002E0E4BEC00F02E0E4BEC00F02E0E4BEC4F
:1008700000F02E0E4BEC00F02E0E4BEC00F02E0E86
:100880004BEC00F02E0E4BEC00F02E0E4BEC00F07B
:100890002E0E4BEC00F02E0E4BEC00F02E0E4BEC1F
:1008A00000F02E0E4BEC00F02E0E4BEC00F02E0E56
:1008B0004BEC00F02E0E4BEC00F02E0E4BEC00F04B
:1008C0002E0E4BEC00F02E0E4BEC00F02E0E4BECEF
:1008D00000F02E0E4BEC00F02E0E4BEC00F02E0E26
:1008E0004BEC00F02E0E4BEC00F02E0E4BEC00F01B
:1008F0002E0E4BEC00F02E0E4BEC00F02E0E4BECBF
:1009000000F02E0E4BEC00F02E0E4BEC00F02E0EF5
:100910004BEC00F02E0E4BEC00F02E0E4BEC00F0EA
:100920002E0E4BEC00F02E0E4BEC00F02E0E4BEC8E
:1009300000F02E0E4BEC00F02E0E4BEC00F02E0EC5
:100940004BEC00F02E0E4BEC00F02E0E4BEC00F0BA
:100950002E0E4BEC00F02E0E4BEC00F02E0E4BEC5E
:1009600000F02E0E4BEC00F02E0E4BEC00F02E0E95
:100970004BEC00F02E0E4BEC00F02E0E4BEC00F08A
:100980002E0E4BEC00F02E0E4BEC00F02E0E4BEC2E
:1009900000F02E0E4BEC00F02E0E4BEC00F02E0E65
:1009A0004BEC00F02E0E4BEC00F02E0E4BEC00F05A
:1009B0002E0E4BEC00F02E0E4BEC00F02E0E4BECFE
:1009C00000F02E0E4BEC00F02E0E4BEC00F02E0E35
:1009D0004BEC00F02E0E4BEC00F02E0E4BEC00F02A
:1009E0002E0E4BEC00F02E0E4BEC00F02E0E4BECCE
:1009F00000F02E0E4BEC00F02E0E4BEC00F02E0E05
:100A00004BEC00F02E0E4BEC00F02E0E4BEC00F0F9
:100A10002E0E4BEC00F00D0E4BEC00F00A0E4BECE2
:100A200000F01E0E99EC00F0F1EC05F018EF05F067
:100A30009EEC05F0320E99EC00F0FAD733EC06F09C
:100A4000E86A2AB0E868146EE86A2AB2E868166EA6
:100A500014C002F01650B8EC00F0166E176EE86A7B
:100A60002AB4E868186E16501710026E1850B8ECC9
:100A700000F0186E196EE86A2AB6E8681A6E185007
:100A80001910026E1A50B8EC00F01A6E1B6E0400BA
:100A90001A501B10D8B44FEF05F060EC05F01CB4F1
:100AA00059EF05F029C0FBFF28C0FAFF2750E06A84
:100AB000F96E26C0FBFF25C0FAFF2450E06AF96EEC
:100AC000830E1F6E0F0E216E800E1D6E060E016EC0
:100AD000500E4BEC00F0420E4BEC00F04C0E4BEC89
:100AE00000F02D0E4BEC00F0490E4BEC00F04E0EDA
:100AF0004BEC00F02D0E4BEC00F03E0E4BEC00F0FA
:100B0000000E2AB0010E2CEC00F0000E2AB2010EED
:100B10002CEC00F0000E2AB4010E2CEC00F0000EBC
:100B20002AB6010E2CEC00F00D0E4BEC00F00A0E74
:100B30004BEC00F0320E99EC00F01200830E1F6EA9
:100B40000F0E216E400E1D6E060E016E0EEC00F0B3
:100B50005008D8A4FBD70EEC00F04208D8A4F6D772
:100B60000EEC00F04C08D8A4F1D70EEC00F02D08E4
:100B7000D8A4ECD70EEC00F04F08D8A4E7D70EECC1
:100B800000F05508D8A4E2D70EEC00F05408D8A421
:100B9000DDD70EEC00F02D08D8A4D8D70EEC00F06D
:100BA0003E08D8A4D3D70EEC00F02D6E0EEC00F06A
:100BB0002E6E0EEC00F02F6E0EEC00F0306E2DB0AD
:100BC00083842DA083942EB083862EA083962FB08D
:100BD00083822FA0839230B0838030A08390839C47
:100BE0001200830E1F6E0F0E216E800E1D6E060EFC
:100BF000016E490E4BEC00F06E0E4BEC00F0740EE3
:100C00004BEC00F0650E4BEC00F0720E4BEC00F07C
:100C1000660E4BEC00F0610E4BEC00F0630E4BECFB
:100C200000F0650E4BEC00F0200E4BEC00F0530E84
:100C30004BEC00F04E0E4BEC00F03A0E4BEC00F09B
:100C4000340E4BEC00F0340E4BEC00F0350E4BEC58
:100C500000F0350E4BEC00F00D0E4BEC00F00A0EE0
:100C60004BEC00F0120080B02A8880A02A9880B255
:100C70002A8A80A22A9A80B42A8C80A42A9C80B6D0
:100C80002A8E80A62A9E04002AB84DEF06F02BA0DB
:100C90004DEF06F02A804EEF06F02A9004002ABAA3
:100CA00058EF06F02BA258EF06F02A8259EF06F013
:100CB0002A9204002ABC63EF06F02BA463EF06F02F
:100CC0002A8464EF06F02A9404002ABE6EEF06F030
:100CD0002BA66EEF06F02A866FEF06F02A962AB84A
:100CE0002B802AA82B902ABA2B822AAA2B922ABCC4
:100CF0002B842AAC2B942ABE2B862AAE2B9612006C
:040D00000300FED717
:020000040030CA
:0A000000C03BD8F2FF78BAFFFC3FC6
:00000001FF
